:020000040800F2
:10000000780200209101000895010008970100087E
:10001000990100089B0100089D01000800000000F4
:100020000000000000000000000000009F01000828
:10003000A101000800000000A3010008A5010008BC
:10004000A7010008A7010008A7010008A7010008F0
:10005000A7010008A7010008A7010008A7010008E0
:10006000A7010008A7010008A7010008A7010008D0
:10007000A7010008A7010008A7010008A7010008C0
:10008000A7010008A7010008A7010008A7010008B0
:10009000A7010008A7010008A7010008A7010008A0
:1000A000A7010008A7010008A7010008A701000890
:1000B000A7010008A7010008A7010008A701000880
:1000C000A7010008A7010008A7010008A701000870
:1000D000A7010008A7010008A7010008A701000860
:1000E000A7010008A7010008A701000800F002F816
:1000F00000F03CF80AA090E8000C82448344AAF186
:100100000107DA4501D100F031F8AFF2090EBAE883
:100110000F0013F0010F18BFFB1A43F0010318473B
:10012000D00C0000F00C0000103A24BF78C878C151
:10013000FAD8520724BF30C830C144BF04680C60ED
:10014000704700000023002400250026103A28BF35
:1001500078C1FBD8520728BF30C148BF0B60704739
:100160001FB500F0B8FD1FBD10B510BD00F05FFB5E
:100170001146FFF7F5FF00F02BFB00F07DFB03B409
:10018000FFF7F2FF03BC00F0F1F9000030BF000000
:1001900008480047FEE7FEE7FEE7FEE7FEE7FEE76A
:1001A000FEE7FEE7FEE7FEE703480449024A044B88
:1001B00070470000ED000008780000207802002061
:1001C000780000204FF0E021096921F004014FF090
:1001D000E0221161C21700EB5272D2101F4B1A704D
:1001E000194609784FF47A7251431D4A11807047BD
:1001F00001461B4A12884A434FF0E0235A6100220D
:100200009A6101221A6100BF4FF0E022106910F0DC
:10021000010F02D010F4803FF6D000224FF0E0230F
:100220001A619A61704701460C4A12784A434FF0AE
:10023000E0235A6100229A6101221A6100BF4FF047
:10024000E022106910F0010F02D010F4803FF6D0C8
:1002500000224FF0E0231A619A61704700000020ED
:1002600002000020AF4A0A400243AF4B1A607047B9
:100270000146072323EA01021202AC4B18684FF62D
:10028000FF0300EA0300AA4B40EA030040EA020031
:100290004FF0E023C3F80C0D70472DE9F04780467E
:1002A000894614461D462046E11704EB91714FEA3A
:1002B000A10AE11704EB91718910A4EB8101CFB27F
:1002C000042000EBC700C7B22846FFF7D1FFC5F1F5
:1002D000040008FA00F60F20284100EA090006434E
:1002E00006F00F06202C0CDA924800684FF001014E
:1002F00001FA04F140EA01004FF0E021C1F80001E9
:100300000DE08D480068A4F120014FF0010202FACF
:1003100001F240EA02004FF0E021C1F804018748F1
:1003200050F82A0006FA07F10843844941F82A00E8
:10033000BDE8F08770B504460B46CE1701EB967604
:10034000B010CE1701EB9676B610A1EB8606B60676
:10035000350E7B4B9B6943F00103794EB3614FEA45
:10036000B63353F820300F26AE40B343754E46F8EF
:100370002030334653F8203004FA05F63343714EEB
:1003800046F82030704B1E684FF0010303FA01F36A
:1003900046EA03066D4BC3F8006412F0010F0AD061
:1003A0006B4B1B684FF0010606FA01F643EA0603A1
:1003B000664EC6F80C3412F0020F0AD0654B1B686B
:1003C0004FF0010606FA01F643EA06035F4EC6F84F
:1003D000083470BD00B5002059490861C860142078
:1003E000486100208861C8610846006840F001004B
:1003F0000860084640685849084051494860084626
:100400000068564908404E4908600846006820F4D4
:10041000802008600846406820F4FE004860002004
:10042000886000214FF00060FFF71CFF00BD10B591
:100430004B48006840F004004FF0E021C1F8100D77
:100440003F48C06940F080503D49C8614548406818
:1004500040F48070434948600846006840F004005A
:1004600008600846006840F002000860FFF78EFE52
:1004700010BD2F48001D2D490860704701464906F0
:100480002F4A926942F001022D4B9A612F4A52681D
:1004900022F0E0622D4B5A601A4652680A435A60B5
:1004A000704730B504460025FFF794FF24480068E4
:1004B00040F480302249086000BF21480068400CA9
:1004C000FBD04FF480601E494860A01EC4B20846AD
:1004D000406840EA844048600846406840F4803004
:1004E00048602148006840F032001F490860144805
:1004F000006840F080701249086000BF1048006832
:10050000400EFBD00E48406840F002000C494860A5
:1005100005E00B484068C0F3870505F00305022D90
:10052000F7D130BD80FFFF1F08ED00E00CED00E0CB
:100530000000FA0500E100E004E100E000E400E072
:10054000001002400800014000040140000001408A
:100550000C040140080401400000FFF8FFFFF6FE14
:1005600010ED00E00070004000200240014600BF96
:10057000704700BF314A128812F0400FFAD0C2B261
:100580002F4B1A8070472DE9F05F05460E4630016B
:1005900000F0C6FA81462B4905FB01F000F0C0FAD5
:1005A0008246494600F0DAF90746384600F098FAE4
:1005B00084B2204600F0B4FA8346394600F097FB37
:1005C00082464FF0834100F0BFFA814600F088FA7E
:1005D0008046240104EB080084B21B48806940F087
:1005E0000400194988610846806940F480408861A8
:1005F0001648006820F47F601549C1F804080846D1
:10060000D0F8040840F40B60C1F804080E48C06834
:1006100040F480400C49C8600846C06820F480401F
:10062000C8600C48A0F808480B48008842F20C014A
:1006300040EA010008490880BDE8F09F0038014009
:100640000438014040420F000010024004080140FD
:1006500000000140003001400C38014051488069E1
:1006600040F004004F4988610846806940F0080066
:1006700088614D48006820F00F004C49C1F804081B
:100680000846D0F8040840F00300C1F80408084602
:10069000D0F80C0840F48070C1F80C084448006899
:1006A000444900EA01004149C1F800084048006897
:1006B000414940EA01003D49C1F800080846D0F828
:1006C0000C0840F01000C1F80C080846D0F80C08DF
:1006D00040F02000C1F80C080846D0F80C0840F0A3
:1006E0004000C1F80C080846D0F8000C6FF30B006E
:1006F000C1F8000C3148006840F2333140EA010093
:100700002A49C1F8000C0846D0F80C0C40F0010052
:10071000C1F80C0C0846D0F80C0C40F00200C1F8EF
:100720000C0C0846D0F80C0C40F00400C1F80C0C7E
:10073000704770B5044600251FE00020204908607E
:1007400004F08000802804D1012001F10401086038
:1007500002E000201B4908600120194908604FEAA7
:1007600044604FEA10644FF00300FFF75CFD002087
:100770001549C1F89001681CC5B2082DDDDB0020C9
:10078000124908604FF00300FFF74DFD01200E49AC
:10079000C1F898010320FFF746FD00200B490860CF
:1007A00070BD00000010024004080140000001403C
:1007B00000080140FFFF00F000003303000C01407F
:1007C00090012142940121420000214298012142DE
:1007D0000920FFF766FE4820FFF7F4FCFFF73EFF15
:1007E00017E001200B4908604FF000000A49C1F8EA
:1007F00084010A490860044609E00949085DFFF7D9
:1008000098FF4FF4FA70FFF7F3FC601CC4B2102C91
:10081000F3DBE6E78081214200802142888121428A
:100820000400002070477047704770477047754656
:1008300000F028F8AE4605006946534620F0070050
:10084000854618B020B5FFF7AFFCBDE820404FF05B
:1008500000064FF000074FF000084FF0000B21F0AA
:100860000701AC46ACE8C009ACE8C009ACE8C00977
:10087000ACE8C0098D4670470446AFF300802046BF
:10088000FFF77DFC004870471400002001487047C6
:10089000704700BF1800002090EA010F48BF81F0A8
:1008A000004100F13682421A3CBF801A89184FEA93
:1008B000D0524FF07F4C1CEA410FA2EBD15318BF2E
:1008C0009CEA026F00F03B804FF0004C4CEA0020A5
:1008D0004CEA012121FA03FC10EB0C0C1ED202F1B0
:1008E000FF325FEA1C2040EBC25038BF70471CF05B
:1008F0007F0F4FEA400C18BFBCF17F4F38BF7047E5
:10090000C3F12003994008BF20F00100BCF17F4FE4
:1009100038BF7047A0F1C04000F0E4B94FEA3C0096
:10092000000A40EBC25028BF1CF0FF0F4FEA400CFA
:10093000E6D018BFBCF17F4F38BF7047EAE79CEAAA
:10094000026F05D010EA5C0F08BF00F0004070474E
:1009500010B500F07AF900BF64FBBE3E4FF47F0C87
:100960001CEAD0121EBF1CEAD11392EA0C0F93EAC4
:100970000C0F00F0858090EA010F48BF42F48072AE
:1009800040F4000C41F400002CF07F4120F07F4047
:1009900000B58142A2EB03020FF2081CACEB504EF3
:1009A000C0F100009EF800E04FEA4E0E00FB0EFC86
:1009B00038BF49004FEA2C1C02F5FA020CFB0EF37B
:1009C0004FEACE1E4FEA112C4FEAC1210EEB635EB7
:1009D00042EB22420EFB0CFC4FEA1C5300FB0311BE
:1009E0004FEA112C4FEA01310EFB0CFC4FEADC4CB4
:1009F00000FB0C11C14228BF09184CEB03335DF812
:100A000004EB10EB410143EBC250B2F57C0F38BF51
:100A1000704729D512F0F00F1CBF00F1C04000F064
:100A200000407047008182838485868788898B8C0B
:100A30008D8E8F919293959697999A9C9D9FA0A247
:100A4000A3A5A7A8AAACAEB0B2B3B5B7B9BCBEC097
:100A5000C2C5C7C9CCCED1D4D7D9DCDFE2E6E9EC38
:100A6000F0F3F7FAFE0000004FEA400C0CF1807C36
:100A7000BCF17E4F28BF7047B0F1C04000F032B9E2
:100A800090EA010F0CEAD11348BF42F4807262452C
:100A900038BF634507D213F47F0F16D080EA0100F8
:100AA00000F00040704710B500F0CFF8097EFC3E22
:100AB00000F005B880EA010000F00040704780EACD
:100AC000010000F0004000F00DB912F47F0F04BFE8
:100AD0000248704780EA010000F004B90000C07FBE
:100AE000C10DD1F19E0206DB4FEA002343F0004323
:100AF00023FA02F07047004207D54FEA4001B1F1F6
:100B0000FE4F02D24FF00000704710B500F09DF884
:100B100049922480002070476FEA2000704700004F
:100B2000B0FA80F310FA03F2C3F19D030AD0D9059D
:100B300001EB1220530638BF704700F1010008BFD7
:100B400020F00100704700004FF47F0C1CEAD01227
:100B50001EBF1CEAD11392EA0C0F93EA0C0F00F0AF
:100B6000478090EA010F48BF42F480724FF0004C7A
:100B70004CEA00204CEA012102EB0302A0FB011326
:100B8000A2F50002002918BF43F001035B0028BF53
:100B90004FEA330342EB22425FEA132C4CEBC25084
:100BA0002EBFBCEB436FB2F57C0F70474FEA036C6E
:100BB000BCF1004F08BF20F00100B2F57C0F38BF38
:100BC00070470BD582F0FF0212F5803FC8BF704717
:100BD00000F1C040D8BF00F00040704700F5000CA5
:100BE0005FEA4C0C48BF7047B0F1C04000F07AB8E3
:100BF00090EA010F0CEAD11348BF42F480726245BB
:100C000038BF634504D280EA010000F0004070471D
:100C100010B500F01AF800BF8900013E00F007B8D7
:100C200000F009B85FEA410C5FEA1C6C08D080EA6A
:100C3000010000F057B85FEA400C5FEA1C6CF6D187
:100C40004FF00040A0F5800070470EF1020E2EF02C
:100C5000030E5EF8044B244204D44FEA4102B2F181
:100C60007F4F11D84FEA4003B3F17F4F0CD80ED11C
:100C70004FEAD07CB2F17F4F0CEB4C0C0CF1020C24
:100C800008BF4CEBD17C04E04FF0080C01E04FEAC8
:100C9000D17C0CEB4C0324FA03F404F00704B4F108
:100CA000040C06D20EEB840CBDE810404CF0010C95
:100CB0006047DFE80CF0070802024FF00040A0F5A3
:100CC000800010BD0846420018BFD2F1807288BF74
:100CD00000F0004010BD10B5FFF7D8FD4FF0000147
:100CE000016010BDFF2141EAD050C005704780F07F
:100CF000004090EA010F7FF5D6AD81F0004100F091
:100D000008B8000090EA010F48BF81F000413FF5AC
:100D1000CAAD421A04D882F00042A0EB020011448E
:100D20004FEAD0524FF07F4C1CEA410FA2EBD15357
:100D300018BF9CEA026F4AD04FF0004C4CEA0020EA
:100D40004CEA012121FA03FCB0EB0C0C0FD412F099
:100D5000FE0F36D05FEA4C001DD5001240EBC250AA
:100D600038BF70471CF03F0F18BF70470BE0A2F16F
:100D700001025FEA1C2040EBC25038BF70471CF0F4
:100D80007F0F18BF7047C3F12003994014BF401E66
:100D900020F00100704780084FEA122308BF704717
:100DA000B0FA80FCA2EB0C02CCF1280C60FA0CF03B
:100DB00093EA122F04BF00EBC25070474FEAC37092
:100DC0007047130A5FEADC1008BF7047F6E79CEA39
:100DD000026F04D010EA5C0F08BF0020704710B506
:100DE000FFF733FF40DFF63E81F000407047000020
:100DF000100E000800000020140000002801000868
:100E0000240E0008140000206402000044010008C1
:100E1000000000003F065B4F666D7D077F6F777CAB
:040E2000395E79714D
:04000005080000ED02
:00000001FF
